:1008000044616E676572212121004C504720476189
:1008100073204C65616B61676500426520616C65A2
:1008200072742100496E747275646572206174007F
:100830005468652047617465210020486F6D65200C
:10084000536563757269747920200020486F6D6567
:10085000206973205361666500486F6D6520697378
:10086000206E6F742053616665004669726520448E
:1008700065746563746564004C504720476173205C
:100880004C65616B616765202100496E7472756407
:100890006572204F7574736964650041540041545A
:1008A0002B434D47463D310053656E64696E6700CA
:1008B0004D6573736167652E2E2E0041542B434D99
:1008C00047533D0038303037383137363032004604
:1008D00069726520696E20796F757220486F6D6549
:1008E000004D6573736167652053656E7421004D1B
:1008F00065737361676520686173206265656E006A
:1009000053656E7420746F204F776E6572004C5083
:100910004720474153204C65616B6167652021008A
:0C0F1F00011900011B00011C00011A0355
:03000300020DB13A
:100DB100C0E0C0F0C083C082C0D075D000C000C008
:100DC10001C002C003C004C005C006C0077F0112F4
:100DD1000EEF7F80120EEF7BFF7A087900120E4C26
:100DE1007FC0120EEF7BFF7A08790A120E4C7F0248
:100DF100120E95E51B7003120B06D007D006D00525
:100E0100D004D003D002D001D000D0D0D082D08382
:050E1100D0F0D0E0323A
:03001300020D3BA0
:100D3B00C0E0C0F0C083C082C0D075D000C000C07E
:100D4B0001C002C003C004C005C006C0077F01126A
:100D5B000EEF7F80120EEF7BFF7A08791A120E4C82
:100D6B00120E767F80120EEF7BFF7A087924120E1B
:100D7B004C7FC0120EEF7BFF7A087930120E4C7F3E
:100D8B0002120E95E51C7003120B9ED007D006D0F5
:100D9B0005D004D003D002D001D000D0D0D082D067
:060DAB0083D0F0D0E0321D
:10092000120EFF120ECF120F2C7F01120EEF7BFF63
:100930007A08793A120E4C120E767F01120EEF12DF
:100940000EB38F1DE51DC394285018E51B7014E5E8
:100950001C70107F80120EEF7BFF7A08794B120E0D
:100960004C80E1E51DD3942840207F01120EEF1248
:100970000E467FC0120EEF7BFF7A08796A120E4C8A
:10098000E5197003120A6E120E76E51BB401197F89
:1009900001120EEF120E467FC0120EEF7BFF7A0897
:1009A0007978120E4C120E76E51C640170917F016D
:1009B000120EEF120E467FC0120EEF7BFF7A0879FF
:0A09C0008A120E4C120E7602093F57
:100EFF00E4F5A0C280C281C282D2AFD2A8D2AA2208
:100ECF007F01120EEF7F38120EEF7F0C120EEF7FA5
:090EDF0006120EEF7F80020EEFF7
:070EE8007F0D120F387F019E
:100EEF008FA0C280D2817F027E00120E7AC2812231
:100F0F008FA0D280D2817F027E00120E7AC2812200
:060E46007BFF7A087959D8
:100E4C008B0E8A0F8910AB0EAA0FA9101209CA605B
:100E5C00130510E5107002050F14F91209CAFF12E0
:050E6C000F0F80E222DF
:040CC2008E118F12EE
:100CC600751301C3E5116480948050107F2D120FB7
:100CD6000FC3E49512F512E49511F511E5124511CD
:100CE60070057F30120F0FD3E5129400E511648072
:100CF60094804029AE11AF127C007D0A1209E3ED03
:100D06002430FF74142513F8A607AE11AF127C0029
:100D16007D0A1209E38E118F12051380CA1513E599
:100D260013D39400400E74142513F8E6FF120F0F28
:040D3600151380EB26
:010D3A002296
:100EB300C2B5D2B77F027E00120E7AD2B520B6FD3C
:0B0EC300C2B77F027E00120E7AAF90D3
:010ECE002201
:0C0F2C00758920758DFD759850D28E22BD
:0B0E16007F0D120F387BFF7A08799ED9
:100E21008B0E8A0F8910AB0EAA0FA9101209CA6086
:100E3100130510E5107002050F14F91209CAFF120B
:050E41000F3880E222E1
:080F38008F993099FDC2992246
:100A6E007519017F02120E957BFF7A08799B120E83
:100A7E0021120E76120E16120E76120E717F0112C2
:100A8E000EEF7BFF7A0879A8120E4C7FC0120EEF84
:100A9E007BFF7A0879B0120E4C7BFF7A0879BB1275
:100AAE000E217F22120F387BFF7A0879C4120E2195
:100ABE007F22120E73120E717BFF7A0879CF120EFF
:100ACE00217F1A120E73120EE87BFF7A0879E1125B
:100ADE000E4C120E767F01120EEF7BFF7A0879EF25
:100AEE00120E4C7FC0120EEF7BFF7A097900120EA8
:080AFE004C7FD07E07020E7A46
:100B0600751B017F02120E957BFF7A08799B120EE8
:100B160021120E76120E16120E76120E717F011229
:100B26000EEF7BFF7A0879A8120E4C7FC0120EEFEB
:100B36007BFF7A0879B0120E4C7BFF7A0879BB12DC
:100B46000E217F22120F387BFF7A0879C4120E21FC
:100B56007F22120E73120E717BFF7A09790E120E26
:100B6600217F1A120E73120EE87BFF7A0879E112C2
:100B76000E4C120E767F01120EEF7BFF7A0879EF8C
:100B8600120E4C7FC0120EEF7BFF7A097900120E0F
:080B96004C7FD07E07020E7AAD
:100B9E00751C017F02120E957BFF7A08799B120E4F
:100BAE0021120E76120E16120E76120E717F011291
:100BBE000EEF7BFF7A0879A8120E4C7FC0120EEF53
:100BCE007BFF7A0879B0120E4C7BFF7A0879BB1244
:100BDE000E217F22120F387BFF7A0879C4120E2164
:100BEE007F22120E73120E717BFF7A08798A120E13
:100BFE00217F1A120E73120EE87BFF7A0879E1122A
:100C0E000E4C120E767F01120EEF7BFF7A0879EFF3
:100C1E00120E4C7FC0120EEF7BFF7A097900120E76
:080C2E004C7FD07E07020E7A14
:090E71007F0D120F387FD07E07BF
:100E7A00D3EF9400EE64809480400F7DFADDFE7D0E
:0A0E8A00FADDFEEF1F70E91E80E69E
:010E9400223B
:100E9500AC07ECD394004015D2827FF47E01120E8C
:0E0EA5007AC2827FF47E01120E7A1C80E52252
:03000000020C36B9
:0C0C3600787FE4F6D8FD75811D020C7D6E
:1009CA00BB010689828A83E0225002E722BBFE022B
:0909DA00E32289828A83E493225E
:1009E300C2D5EC30E709B2D5E4C39DFDE49CFCEE2F
:1009F30030E715B2D5E4C39FFFE49EFE120A19C384
:100A0300E49DFDE49CFC8003120A1930D507C3E47E
:060A13009FFFE49EFE229D
:100C4200020920E493A3F8E493A34003F68001F29F
:100C520008DFF48029E493A3F85407240CC8C333B3
:100C6200C4540F4420C8834004F456800146F6DF82
:100C7200E4800B0102040810204080900F1FE47EE4
:100C8200019360BCA3FF543F30E509541FFEE49377
:100C9200A360010ECF54C025E060A840B8E493A33E
:100CA200FAE493A3F8E493A3C8C582C8CAC583CA69
:100CB200F0A3C8C582C8CAC583CADFE9DEE780BE21
:010F2B0000C5
:100A1900BC000BBE0029EF8DF084FFADF022E4CCC1
:100A2900F875F008EF2FFFEE33FEEC33FCEE9DEC8A
:100A3900984005FCEE9DFE0FD5F0E9E4CEFD22EDD0
:100A4900F8F5F0EE8420D21CFEADF075F008EF2F1A
:100A5900FFED33FD4007985006D5F0F222C398FD0B
:050A69000FD5F0EA22A8
:00000001FF
